:020000040000FA
:020000000528D1
:06000A0083160313181514
:1000100081309900181298168312981718163920F3
:1000200048309900831646204F30990083164620A9
:100030004C309900831646204130990083164620A3
:1000400020309900831646205530990083164620AB
:100050004E30990083164620413099008316462081
:100060004D309900831646200F30990083164620A4
:100070000F281430A200FA30A100FA30A000A00B23
:100080003F28A10B3D28A20B3B280800981C4628BE
:0400900083120800CF
:00000001FF
