:020000040000FA
:020000000528D1
:06000A0083160313181514
:1000100081309900181298168312981718163D20EF
:100020004830990083164A204F30990083164A20A1
:100030004C30990083164A204130990083164A209B
:100040002030990083164A205530990083164A20A3
:100050004E30990083164A204130990083164A2079
:100060004D30990083164A200A30990083164A20A1
:100070000D30990083164A200F281430A200FA3060
:10008000A100FA30A000A00B4328A10B4128A20B2D
:0C0090003F280800981C4A288312080032
:00000001FF
