:020000040000FA
:020000000528D1
:06000A0083160313181514
:1000100081309900181298168601871007118312F3
:100020009817181686018710071186014420402072
:10003000A3004430230203192A2864302302031941
:100040002A2849302302031933286930230203196F
:1000500033281528861703104420860C061C2B28ED
:100060004420860C1528061403104420860D861F94
:1000700034284420860D1528981C3C28831208003B
:100080008C1E40281A0808001430A200FA30A10083
:10009000FA30A000A00B4A28A10B4828A20B462842
:0200A000080056
:00000001FF
