:020000040000FA
:020000000528D1
:06000A00850183160313BB
:1000100018159F01813099001812981686018312D5
:1000200098171816A601A701A801E9309F001F150F
:100030003F201F1919281E08A50025074E20280853
:10004000303E44202708303E44202608303E4420DD
:1000500043304420F83044200A3044200D304420FE
:10006000322012281430A200FA30A100FA30A00089
:10007000A00B3828A10B3628A20B34280800FF302B
:10008000A400A40B4128080099008316981C462858
:10009000831208008C1E4A281A080800A300643046
:1000A0002302031C5628A80AA3004F280A30230263
:1000B000031C5D28A70AA30056282308A6000800F1
:00000001FF
