:020000040000FA
:020000000528D1
:06000A00850183160313BB
:1000100018159F01813099001812981686018312D5
:10002000981718168601A601A701A801E9309F00BC
:100030001F1540201F191A281E08A50025074F204C
:100040002808303E45202708303E45202608303E0F
:10005000452043304520F83045200A3045200D30FA
:100060004520332013281430A200FA30A100FA30C2
:10007000A000A00B3928A10B3728A20B35280800B7
:10008000FF30A400A40B4228080099008316981C96
:100090004728831208008C1E4B281A080800A3006A
:1000A00064302302031C5728A80AA30050280A30F2
:1000B0002302031C5E28A70AA30057282308A600D2
:0200C000080036
:00000001FF
