:1000000000308A008D280000202A6F32EF39203618
:10001000EF392031693A73106537E3326E32693255
:10002000EF3920050D00202A6F32EF392036EF39E5
:100030002036653273106138E1336132EF392005C3
:100040000D000B08A1008B13831603178C170C14DB
:100050000000000083120313A11B8B1703170C0869
:100060007F39031977280313A10003170D08031321
:10007000A20003170F080313A30021080C1E3E283B
:100080009900220803178D000313230803178F001C
:1000900003130B08A4008B13831603178C170C147F
:1000A0000000000083120313A41B8B1703170C0D11
:1000B0000E0D7F39031977280313A10003170D08CC
:1000C0000313A20003170F080313A30021080C1E3B
:1000D00067289900220803178D00031323080317CC
:1000E0008F008D0A03198F0A0313212803170313A6
:1000F0000800223084008313000803198C2806307E
:10010000F800F701F70B8228F80B81287B30F70005
:10011000F70B8828800B7F28080003081F3983000D
:10012000813083169900A630980090308312980091
:1001300083161F149F141F159F1183138601FF3010
:1001400083128600043003178D0000308F000313E4
:1001500021200430A100FA30A2007920A10BAB28A5
:100160008316860183128601133003178D00003039
:100170008F00031321200430A100FA30A20079205F
:0A018000A10BBD2883169E28630022
:023E00000800B8
:02400E00723FFF
:00000001FF
;PIC16F877
;CRC=658D  CREATED="06-may.-24 12:00"
