:1000000000308A00F4280000A0246E3AF237E43A67
:10001000FA316110753761106F38E3346F373A1079
:100020008A060000202A6F32EF392036EF3920315E
:10003000693A73106138E1336132EF3920050D0000
:10004000202A6F32EF392036EF392031693A7310A8
:100050006537E3326E326932EF398A060001A0213A
:100060006F39F234ED346537F4372034E131E9305B
:1000700020366110E432F232633461108A060001E6
:10008000A0216F39F234ED346537F4372034E13193
:10009000E93020366110693DF13AE932723261107F
:1000A0008A060001A0216F39F234ED346537F43748
:1000B0002034E131E93020366110E432F232633429
:1000C000611079106110EC30A034FA38F5346539DC
:1000D000E43020050D00202A6F32EF392036EF3949
:1000E0002031693A73106537E3326E326932EF3985
:1000F00020050D00202A6F32EF392036EF392036E7
:10010000653273106138E1336132EF3920050D003B
:100110000B08A4008B13831603178C170C14000014
:10012000000083120313A41B8B1703170C087F39DD
:100130000319DE280313A40003170D080313A500F9
:1001400003170F080313A60024080C1EA528990006
:10015000250803178D000313260803178F000313C8
:100160000B08A7008B13831603178C170C140000C1
:10017000000083120313A71B8B1703170C0D0E0D22
:100180007F390319DE280313A40003170D08031396
:10019000A50003170F080313A60024080C1ECE2881
:1001A0009900250803178D000313260803178F00F5
:1001B0008D0A03198F0A03138828031703130800F5
:1001C00025308400831300080319F3280630F80053
:1001D000F701F70BE928F80BE8287B30F700F70B5D
:1001E000EF28800BE628080003081F398300203021
:1001F00083169900A63098009030831298008316D9
:100200001F149F141F159F118313043083120317AB
:100210008D0000308F00031388208C1E0D291A08D2
:10022000A1002108303C031D282983168601831272
:100230008601123003178D0000308F0003138820D1
:100240000430A400FA30A500E020A40B2229252ABE
:100250002108313C031D402983168601FF3083129B
:100260008600203003178D0000308F000313882094
:100270000430A400FA30A500E020A40B3A29252A76
:100280002108323C031D73298316860183128601DF
:100290002F3003178D0000308F00031388200130AA
:1002A000A200831686018312220886000230A40071
:1002B000FA30A500E020A40B5829A3012308063C2E
:1002C000031C72290310A20D8316860183122208D3
:1002D00086000230A400FA30A500E020A40B6B29B0
:1002E000A30A5E29252A2108333C031DA62983166B
:1002F000860183128601403003178D0000308F0085
:10030000031388208030A2008316860183122208FE
:1003100086000230A400FA30A500E020A40B8B294F
:10032000A3012308063C031CA5290310A20C831675
:1003300086018312220886000230A400FA30A5004C
:10034000E020A40B9E29A30A9129252A2108343CE8
:10035000031DFC2983168601831286015230031780
:100360008D0000308F00031388200130A200831617
:1003700086018312220886000230A400FA30A5000C
:10038000E020A40BBE29A3012308063C031CD829A6
:100390000310A20D83168601831222088600023004
:1003A000A400FA30A500E020A40BD129A30AC42997
:1003B0008030A20083168601831222088600023054
:1003C000A400FA30A500E020A40BE129A301230832
:1003D000063C031CFB290310A20C83168601831222
:1003E000220886000230A400FA30A500E020A40B09
:1003F000F429A30AE729252A2108353C031D252ACB
:1004000083168601FF30831286006B3003178D0040
:1004100000308F00031388200430A400FA30A500B8
:10042000E020A40B0E2A83168601831286017A30FF
:1004300003178D0000308F00031388200430A400C0
:10044000FA30A500E020A40B202A831605296300BA
:023E00000800B8
:02400E00723FFF
:00000001FF
;PIC16F877
;CRC=3DE0  CREATED="07-may.-24 18:20"
