:020000040000FA
:10000000012883168501860183125F200510303098
:100010004F205F2030304F205F2030304F205F2056
:1000200020304F2035202F203120332001302D204B
:1000300048303E204F303E204C303E2041303E2064
:1000400005302B2057303E2045303E204C303E209E
:1000500053303E202A28C03E3728803E37280C30B7
:100060003728013037280630372828303728A100B4
:1000700021084F20A10E21084F200800A2000514DE
:100080004520A20E220845200800F039A3000514DF
:1000900006080F39A3042308860059200800F03908
:1000A000A000051006080F39A0042008860059207A
:1000B00008005F205F2085145F2085100800FA305B
:0C00C000A4000000A40B61282508080023
:00000001FF
