:020000040000FA
:020000000528D1
:06000A008501860187015B
:1000100083160313860107309F000C308500E03003
:1000200088000030870083128A2180309B212310B2
:10003000241025108501860188012410231C1E210F
:100040002314C0212908A6000508A700FA21FA21D7
:10005000271D1A282B28AB01AC01AD01AE01AF0161
:10006000B101B201A60125100130B0002310241CFB
:10007000532124143F289920B00A25100321050894
:10008000A700271D3F28251CE520251492200508E0
:10009000A800A81D4328A9032908003C031D3B28EC
:1000A0002608013C031999205B20AB200508A80015
:1000B000A81D56281A282C08B1000130B2000230C1
:1000C00026020318642891282D08310203186D2890
:1000D000033026020318762891282D08B10002303B
:1000E000B200033026020318762891282E08310228
:1000F00003187F28043026020318882891282E0828
:10010000B1000330B2000430260203188828912879
:100110002F08310203188D2891282F08B1000430D0
:10012000B2000800881E9828AB0A0714072207109F
:1001300008003008013030020319D52102303002A6
:100140000319D921033030020319DD2104303002B4
:100150000319E1210800AB21FA21FA2180309B210B
:100160004A30A2217530A2216730A2216130A2213C
:100170006430A2216F30A2217230A2212030A2214E
:100180003208AE213308303EA221C0309B214730D7
:10019000A2216130A2216E30A2216130A221203043
:1001A000A2216330A2216F30A2216E30A221203023
:1001B000A2213108AE213508303EA2213408303E5C
:1001C000A2213308303EA2210800AB21FA21FA21F6
:1001D00080309B215230A2216530A2216330A221C0
:1001E0006F30A2217230A2217230A2216930A22187
:1001F0006430A2216F30A2212E30A2212E30A22104
:100200002E30A2210800AB21FA2180309B215030F2
:10021000A2215230A2214530A2215330A2215330D5
:10022000A2212030A2215330A2215430A2214130FA
:10023000A2215230A2215430A2210800AB21FA2180
:1002400080309B214130A2216C30A2216530A22157
:100250007830A2216930A2217330A2212030A2215E
:100260005330A2216130A2216E30A2216330A2213D
:100270006830A2216530A2217A30A221C0309B21B2
:100280004630A2212E30A2214930A2212E30A221B7
:100290002030A2215530A2214E30A2214130A2218E
:1002A0004D30A2210800AB21FA2180309B21F121A1
:1002B000F1215030A2217230A2216530A221733089
:1002C000A2216930A2216F30A2216E30A2216130BB
:1002D000A221C0309B215330A2215430A2214130B1
:1002E000A2215230A2215430A2212030A22170300C
:1002F000A2216130A2217230A2216130A2212030DE
:10030000A2216930A2216E30A2216930A22174306D
:10031000A221080030309B21FA2130309B21FA21A4
:1003200038309B210C309B2101309B2106309B21D2
:1003300002309B2108008600F12105108514F1216F
:10034000851008008600F12105148514F12185101F
:10035000F121F121080001309B210800AA0064303E
:100360002A02031CB629B50AAA00AF290A302A02BC
:10037000031CBD29B40AAA00B6292A08B300080044
:100380000808C039AA0000302A020319E5214030CC
:100390002A020319E82180302A020319EB21C03018
:1003A0002A020319EE21290808002B08AC00AB0132
:1003B00008002B08AD00AB0108002B08AE00AB0114
:1003C00008002B08AF00AB0108000130A9000800AD
:1003D0000230A90008000330A90008000430A90079
:1003E00008000230A100A430A000A00BF529A10B49
:1003F000F32908000330A000FF30A100FF30A20065
:10040000A20B002AA10BFE29A00BFC2908001F301B
:10041000A000FF30A100FF30A200A20B0D2AA10B0B
:080420000B2AA00B092A0800B9
:00000001FF
