:1000000000308A00C32800004937E434E330A032CE
:100010006C10E430F4370A008A04CC32E439A030A2
:10002000F030E730E43773008A04CC32E439A03290
:10003000EE316537E434E43773008A04C33772392C
:10004000E936E9326E3A6F106110EC3020326539D2
:10005000E531E83000018A04C3377239E936E93204
:100060006E3A6F106110EC30A034FA38F53465390F
:10007000E43000018A04C3377239E936E9326E3A56
:100080006F106110EC3020326539E531E830000145
:100090008A04C3377239E936E9326E3A6F1061105B
:1000A000EC30A034FA38F5346539E43000000B0840
:1000B000A5008B13831603178C170C140000000087
:1000C00083120313A51B8B1703170C087F39031921
:1000D000AD280313A50003170D080313A60003178B
:1000E0000F080313A70025080C1E74289900260882
:1000F00003178D000313270803178F0003130B0842
:10010000A8008B13831603178C170C140000000033
:1001100083120313A81B8B1703170C0D0E0D7F39C9
:100120000319AD280313A50003170D080313A60038
:1001300003170F080313A70025080C1E9D2899001C
:10014000260803178D000313270803178F008D0A55
:1001500003198F0A031357280317031308002630C7
:100160008400831300080319C2280630F800F70141
:10017000F70BB828F80BB7287B30F700F70BBE2831
:10018000800BB528080003081F39830081308316CF
:100190009900A630980090308312980083161F149F
:1001A0009F141F159F1183130430831203178D00B2
:1001B00000308F00031357208C1EDC281A08A10082
:1001C00021080C1EE12899002108303A0319F8286B
:1001D000013A03190B29033A03191F29013A03199C
:1001E0003E29073A03195D29013A03199A29B629CC
:1001F0000C3003178D0000308F0003135720831637
:100200008601831286010230A500FA30A600AF20D5
:10021000A50B0529B629143003178D0000308F0077
:100220000313572083168601FF30831286000230A5
:10023000A500FA30A600AF20A50B1929B6291D305C
:1002400003178D0000308F00031357208030A20069
:10025000A4012408073C031C3D2983168601831250
:10026000220886000230A500FA30A600AF20A50BB8
:1002700034290310A20CA40A2929B6292B3003170C
:100280008D0000308F00031357200130A200A4011D
:100290002408073C031C5C2983168601831222086C
:1002A00086000230A500FA30A600AF20A50B532926
:1002B0000310A20DA40A4829B6293A3003178D006D
:1002C00000308F00031357208030A200A4012408BF
:1002D000073C031C7B2983168601831222088600B3
:1002E0000230A500FA30A600AF20A50B722903103A
:1002F000A20CA40A6729483003178D0000308F0034
:10030000031357200130A200A4012408073C031C5A
:100310009929831686018312220886000230A500DF
:10032000FA30A600AF20A50B90290310A20DA40A55
:100330008529B62983168601831286010230A5001D
:10034000FA30A600AF20A50BA02983168601FF3046
:10035000831286000230A500FA30A600AF20A50B5C
:10036000AC298316860183128601B6298316D42808
:02037000630028
:023E00000800B8
:02400E00723FFF
:00000001FF
;PIC16F877
;CRC=6C0A  CREATED="11-may.-24 19:47"
