:020000040000FA
:020000000528D1
:0800080027288316031386016B
:10001000870188010C148C14FF3092000730810096
:100020008312313090007F3092008B160B178B17A4
:10003000831600309F0083128501860187018801A5
:10004000A001A101A2010B110C108C1026280B1D80
:1000500038280C1C43288C1C4E28A00A3C30200257
:10006000031D4F28552023088600A0010B114E28A0
:10007000A10A78302102031D51286020240887003E
:10008000A1010C104E28A20AB4302202031D5328ED
:100090006B2025088800A2018C104E2809000B1146
:1000A00009000C1009008C1009008316C1309F0054
:1000B00083121F1576201F195B281E08A300080055
:1000C0008316C9309F0083121F1576201F196628DA
:1000D0001E08A40008008316D1309F0083121F154C
:1000E00076201F1971281E08A50008002830A600D8
:0800F0000000A60B78280800AF
:00000001FF
