:020000040000FA
:020000000528D1
:06000A00850183160313BB
:1000100088019F01831288010310E9309F001F159A
:100020003D201F111E08A200F1309F001F153D202A
:100030001F111E08A300F9309F001F153D201F113E
:100040001E08A400230203182A28240822020318E9
:100050002F283A2823082202031834283728220898
:100060002302031837283428013088000C28033075
:1000700088000C28073088000C285030A100503030
:0C008000A000A00B4128A10B3F280800A5
:00000001FF
