:100000000E308A00232E0000FF00030E8301A100A2
:100010000A08A0008A010408A2007708A300780853
:10002000A4007908A5007A08A60003170D08031399
:10003000A70003170F080313A80003170C080313E6
:10004000A90003170E080313AA00831383128B1D44
:100050002B280B184C28220884002308F7002408BA
:10006000F8002508F9002608FA00270803178D0074
:100070000313280803178F000313290803178C00A4
:1000800003132A0803178E00031320088A00210E89
:100090008300FF0E7F0E09008A150A12F729A0229D
:1000A000F13A69386F10321D0A00A020EC31613737
:1000B000F4307210D6346137E53C2000A029613756
:1000C0006334653DA020EC32F83473100001202B1E
:1000D0006536613DF13A653DA0256139EC3020007F
:1000E0005039EF3CE531F437202369376136201071
:1000F00000002010202B6F36F430EA322010201040
:10010000200020102A2AE536F032F230F43AF2309C
:1001100020002010202AE536F032F230F43AF23096
:10012000200020102A2B6F36F430EA3220102010E5
:1001300020002010A0216F39F2346537F4322010EE
:10014000200020102A2B6F36F430EA3220102010C5
:1001500020002010202B6F36F430EA3220102010BF
:1001600020002010AA216F39F2346537F4322010B4
:100170002000202AE536F032F230F43AF2303A101C
:10018000201000012010A012301AAE186610431083
:100190002010801E202B6F36F430EA323A102010E7
:1001A0002010201000012010201025182E19661094
:1001B0005610201020102000A0216F39F23465372E
:1001C000F4323A10201020100001201020102518C1
:1001D00035173133A03641102010200068308400DC
:1001E00083130008031901290630F800F701F70B03
:1001F000F728F80BF6287B30F700F70BFD28800B6B
:10020000F42808006708073A031910290B3A031964
:100210008C29063A0319FB29023A0319782AE42AA1
:100220000130E800E900690B162919294030EA007D
:100230001A29EA0101306802EA076A088038EB00EF
:10024000EC016B08ED00831608108810081183126A
:1002500088100F3083160805F038880083120815BF
:100260000000081400000808F700080E0F39F80015
:100270007808EF000810000008143E293F2900000C
:100280000808F700080E0F39F8007808EE0008108B
:100290000F3083160805880083126F0EF700F030C8
:1002A000F70577086E04F8007808EE00EE1B2929A0
:1002B0006C1C88106C1888140000081100000810CD
:1002C0006D0EEE000F30EE056E08EF006F0EF03988
:1002D000F7000F300805770488000000081402308A
:1002E000F700F70B71297429000008106D080F3909
:1002F000EE006E08EF006F0EF039F7000F300805C2
:1003000077048800000008140230F700F70B8629F4
:10031000892900000810502BEC010130ED008316F4
:10032000081088100811831288100F3083160805F2
:10033000F03888008312081500000814000008082F
:10034000F700080E0F39F8007808EF0008100000D9
:100350000814AA29AB2900000808F700080E0F3975
:10036000F8007808EE0008100F30831608058800A2
:1003700083126F0EF700F030F70577086E04F8006F
:100380007808EE00EE1B95296C1C88106C188814F8
:1003900000000811000008106D0EEE000F30EE0591
:1003A0006E08EF006F0EF039F7000F300805770484
:1003B0008800000008140230F700F70BDD29E0295F
:1003C000000008106D080F39EE006E08EF006F0E88
:1003D000F039F7000F300805770488000000081492
:1003E0000230F700F70BF229F5290000081002305F
:1003F000E800EE20502B0130E8000230E900690BE4
:10040000022A052A4030EA00062AEA010130680281
:10041000EA076A088038EB00EC016B08ED008316F0
:10042000081088100811831288100F3083160805F1
:10043000F03888008312081500000814000008082E
:10044000F700080E0F39F8007808EF0008100000D8
:1004500008142A2A2B2A00000808F700080E0F3972
:10046000F8007808EE0008100F30831608058800A1
:1004700083126F0EF700F030F70577086E04F8006E
:100480007808EE00EE1B152A6C1C88106C18881476
:1004900000000811000008106D0EEE000F30EE0590
:1004A0006E08EF006F0EF039F7000F300805770483
:1004B0008800000008140230F700F70B5D2A602A5C
:1004C000000008106D080F39EE006E08EF006F0E87
:1004D000F039F7000F300805770488000000081491
:1004E0000230F700F70B722A752A00000810502B13
:1004F000EC011030ED0083160810881008118312EB
:1005000088100F3083160805F0388800831208150C
:100510000000081400000808F700080E0F39F80062
:100520007808EF00081000000814962A972A0000A7
:100530000808F700080E0F39F8007808EE000810D8
:100540000F3083160805880083126F0EF700F03015
:10055000F70577086E04F8007808EE00EE1B812A94
:100560006C1C88106C18881400000811000008101A
:100570006D0EEE000F30EE056E08EF006F0EF039D5
:10058000F7000F30080577048800000008140230D7
:10059000F700F70BC92ACC2A000008106D080F39A4
:1005A000EE006E08EF006F0EF039F7000F3008050F
:1005B00077048800000008140230F700F70BDE2AE9
:1005C000E12A00000810502B0130EC006708ED0014
:1005D0008316081088100811831288100F308316B4
:1005E0000805F03888008312081500000814000080
:1005F0000808F700080E0F39F8007808EF00081017
:1006000000000814032B042B00000808F700080E54
:100610000F39F8007808EE0008100F30831608052F
:10062000880083126F0EF700F030F70577086E042C
:10063000F8007808EE00EE1BEE2A6C1C88106C188F
:10064000881400000811000008106D0EEE000F3035
:10065000EE056E08EF006F0EF039F7000F30080559
:1006600077048800000008140230F700F70B362BDF
:10067000392B000008106D080F39EE006E08EF00EE
:100680006F0EF039F7000F3008057704880000007E
:1006900008140230F700F70B4B2B4E2B000008100C
:1006A00008000B08DA008B13831603178C170C1441
:1006B0000000000083120313DA1B8B1703170C08CA
:1006C0007F390319A52B0313DA0003170D08031351
:1006D000DB0003170F080313DC005A08E7000221B0
:1006E0005B0803178D0003135C0803178F000313C7
:1006F0000B08DD008B13831603178C170C140000F6
:10070000000083120313DD1B8B1703170C0D0E0D56
:100710007F390319A52B0313DA0003170D08031300
:10072000DB0003170F080313DC005A08E70002215F
:100730005B0803178D0003135C0803178F008D0AF5
:1007400003198F0A0313512B0317031308003B08E7
:10075000003A0319B52B013A0319BB2C033A0319CC
:10076000C12D013A0319C72ECD2F0130E800023008
:10077000E900690BBC2BBF2B4030EA00C02BEA011B
:1007800001306802EA076A088038EB00EC016B0868
:10079000ED008316081088100811831288100F309E
:1007A00083160805F0388800831208150000081425
:1007B00000000808F700080E0F39F8007808EF006D
:1007C000081000000814E42BE52B00000808F700CF
:1007D000080E0F39F8007808EE0008100F30831665
:1007E0000805880083126F0EF700F030F7057708D0
:1007F0006E04F8007808EE00EE1BCF2B6C1C8810FE
:100800006C18881400000811000008106D0EEE002E
:100810000F30EE056E08EF006F0EF039F7000F3065
:10082000080577048800000008140230F700F70B71
:10083000172C1A2C000008106D080F39EE006E08F6
:10084000EF006F0EF039F7000F30080577048800CD
:10085000000008140230F700F70B2C2C2F2C00009E
:100860000810793003178D0000308F0003135123D7
:100870000130E800E900690B3E2C412C4030EA00D1
:10088000422CEA0101306802EA076A088038EB006E
:10089000EC016B08ED008316081088100811831214
:1008A00088100F3083160805F03888008312081569
:1008B0000000081400000808F700080E0F39F800BF
:1008C0007808EF00081000000814662C672C000060
:1008D0000808F700080E0F39F8007808EE00081035
:1008E0000F3083160805880083126F0EF700F03072
:1008F000F70577086E04F8007808EE00EE1B512C1F
:100900006C1C88106C188814000008110000081076
:100910006D0EEE000F30EE056E08EF006F0EF03931
:10092000F7000F3008057704880000000814023033
:10093000F700F70B992C9C2C000008106D080F395C
:10094000EE006E08EF006F0EF039F7000F3008056B
:1009500077048800000008140230F700F70BAE2C73
:10096000B12C00000810813003178D0000308F007B
:1009700003135123CD2F0130E800E900690BC12C8E
:10098000C42C4030EA00C52CEA0101306802EA07B5
:100990006A088038EB00EC016B08ED008316081044
:1009A00088100811831288100F3083160805F0385C
:1009B0008800831208150000081400000808F700DA
:1009C000080E0F39F8007808EF000810000008142E
:1009D000E92CEA2C00000808F700080E0F39F8008F
:1009E0007808EE0008100F3083160805880083127F
:1009F0006F0EF700F030F70577086E04F8007808FE
:100A0000EE00EE1BD42C6C1C88106C1888140000AF
:100A10000811000008106D0EEE000F30EE056E0894
:100A2000EF006F0EF039F7000F30080577048800EB
:100A3000000008140230F700F70B1C2D1F2D0000DA
:100A400008106D080F39EE006E08EF006F0EF039D8
:100A5000F7000F3008057704880000000814023002
:100A6000F700F70B312D342D0000081089300317E3
:100A70008D0000308F00031351230130E800023055
:100A8000E900690B442D472D4030EA00482DEA016A
:100A900001306802EA076A088038EB00EC016B0855
:100AA000ED008316081088100811831288100F308B
:100AB00083160805F0388800831208150000081412
:100AC00000000808F700080E0F39F8007808EF005A
:100AD0000810000008146C2D6D2D00000808F700A8
:100AE000080E0F39F8007808EE0008100F30831652
:100AF0000805880083126F0EF700F030F7057708BD
:100B00006E04F8007808EE00EE1B572D6C1C881060
:100B10006C18881400000811000008106D0EEE001B
:100B20000F30EE056E08EF006F0EF039F7000F3052
:100B3000080577048800000008140230F700F70B5E
:100B40009F2DA22D000008106D080F39EE006E08D1
:100B5000EF006F0EF039F7000F30080577048800BA
:100B6000000008140230F700F70BB42DB72D000079
:100B70000810913003178D0000308F0003135123AC
:100B8000CD2F0130E8000230E900690BC82DCB2DD4
:100B90004030EA00CC2DEA0101306802EA076A0819
:100BA0008038EB00EC016B08ED008316081088100C
:100BB0000811831288100F3083160805F03888005A
:100BC000831208150000081400000808F700080E3A
:100BD0000F39F8007808EF00081000000814F02D15
:100BE000F12D00000808F700080E0F39F80078080A
:100BF000EE0008100F3083160805880083126F0E70
:100C0000F700F030F70577086E04F8007808EE007A
:100C1000EE1BDB2D6C1C88106C188814000008116A
:100C2000000008106D0EEE000F30EE056E08EF00AC
:100C30006F0EF039F7000F300805770488000000C8
:100C400008140230F700F70B232E262E00000810A0
:100C50006D080F39EE006E08EF006F0EF039F700E7
:100C60000F30080577048800000008140230F700F0
:100C7000F70B382E3B2E00000810993003178D001B
:100C800000308F00031351230130E800E900690BA5
:100C90004A2E4D2E4030EA004E2EEA010130680205
:100CA000EA076A088038EB00EC016B08ED00831658
:100CB000081088100811831288100F308316080559
:100CC000F038880083120815000008140000080896
:100CD000F700080E0F39F8007808EF000810000040
:100CE0000814722E732E00000808F700080E0F3942
:100CF000F8007808EE0008100F3083160805880009
:100D000083126F0EF700F030F70577086E04F800D5
:100D10007808EE00EE1B5D2E6C1C88106C18881491
:100D200000000811000008106D0EEE000F30EE05F7
:100D30006E08EF006F0EF039F7000F3008057704EA
:100D40008800000008140230F700F70BA52EA82E2B
:100D5000000008106D080F39EE006E08EF006F0EEE
:100D6000F039F7000F3008057704880000000814F8
:100D70000230F700F70BBA2EBD2E00000810A1308C
:100D800003178D0000308F0003135123CD2F013046
:100D9000E800E900690BCD2ED02E4030EA00D12EBC
:100DA000EA0101306802EA076A088038EB00EC01CA
:100DB0006B08ED0083160810881008118312881044
:100DC0000F3083160805F0388800831208150000DC
:100DD000081400000808F700080E0F39F80078081A
:100DE000EF00081000000814F52EF62E0000080889
:100DF000F700080E0F39F8007808EE0008100F30E1
:100E000083160805880083126F0EF700F030F7058F
:100E100077086E04F8007808EE00EE1BE02E6C1CDC
:100E200088106C18881400000811000008106D0E5E
:100E3000EE000F30EE056E08EF006F0EF039F70090
:100E40000F30080577048800000008140230F7000E
:100E5000F70B282F2B2F000008106D080F39EE001C
:100E60006E08EF006F0EF039F7000F3008057704B9
:100E70008800000008140230F700F70B3D2F402FC8
:100E800000000810A93003178D0000308F000313F5
:100E900051230130E8000230E900690B502F532F35
:100EA0004030EA00542FEA0101306802EA076A087C
:100EB0008038EB00EC016B08ED00831608108810F9
:100EC0000811831288100F3083160805F038880047
:100ED000831208150000081400000808F700080E27
:100EE0000F39F8007808EF00081000000814782F78
:100EF000792F00000808F700080E0F39F80078086D
:100F0000EE0008100F3083160805880083126F0E5C
:100F1000F700F030F70577086E04F8007808EE0067
:100F2000EE1B632F6C1C88106C18881400000811CD
:100F3000000008106D0EEE000F30EE056E08EF0099
:100F40006F0EF039F7000F300805770488000000B5
:100F500008140230F700F70BAB2FAE2F000008107B
:100F60006D080F39EE006E08EF006F0EF039F700D4
:100F70000F30080577048800000008140230F700DD
:100F8000F70BC02FC32F00000810B13003178D00DE
:0C0F900000308F0003135123CD2F080008
:10100000670803197028EF006B0803197028EF07B1
:10101000031811287F30EF02031C70280319702871
:1010200015288130EF07031870286F08F700F801C2
:10103000F901FA016808F300F3176908F2006A0879
:10104000F1001830EF00F001711C3E286E08FA071D
:10105000031C3028F90A031D3028F80A0319F01779
:101060006D08F907031C3728F80A0319F0176C08F4
:10107000E900E9176908F8070318F017F00DF80CF4
:10108000F90CFA0CF30CF20CF10C0310EF0B232803
:101090000130F70703187028F81B5528F30DFA0DD7
:1010A000F90DF80DF70303197028F31F6628FA0AE3
:1010B000031D6628F90A031D6628F80A031D662821
:1010C000F80CF90CFA0CF70A031970286808F000FC
:1010D0006C08F006F01F6E28F8177428F8137428AF
:1010E000F701F801F901FA0108000408DF005E08C1
:1010F000E100031994285D08EA005C08E9005B0838
:10110000E8005A08E700EE01ED012030EC008230E3
:10111000EB0000207A08DD007908DC007808DB00AD
:101120007708DA00E10B7B285D08EA005C08E9003B
:101130005B08E8005A08E7006708B63CE700FA01D8
:101140006808EB00E8170310E80CE90CEA0CFA0C4D
:10115000F90CF80CF70CE70BA328EB1FBA28F709DA
:10116000F809F909FA09F70A0319F80A0319F90A3B
:101170000319FA0A7A08DD007908DC007808DB0038
:101180007708DA00DD1FD128DF03DF16DA09DB0973
:10119000DC09DD09DA0A0319DB0A0319DC0A031981
:1011A000DD0A3B30E6009A30E500CA30E400E30196
:1011B0000A30E1005E080319DF0A83145A30840004
:1011C00083135D08EA005C08E9005B08E8005A0840
:1011D000E7006608EE006508ED006408EC006308AF
:1011E000EB008318F6286F3084008313F701F801B1
:1011F000F901FA01EF01F001F101F2016E086D044D
:101200006C046B04031934292030F3000310E70D3C
:10121000E80DE90DEA0DEF0DF00DF10DF20D6E0880
:101220007202031D1D296D087102031D1D296C0822
:101230007002031D1D296B086F02031C2E296B0809
:10124000EF026C08031C6C0FF0026D08031C6D0F9D
:10125000F1026E08031C6E0FF2020314F70DF80D75
:10126000F90DFA0DF30B06296F088000840A700847
:101270008000840A71088000840A7208800078085F
:10128000F708031D56295E0A6102031956295F08F3
:10129000031958290F39610203195029031890299D
:1012A000DF1B90295F1B582920308A292030DF0559
:1012B000DF1E6829DF125E08031DDF037708DF00E9
:1012C0002D30E7008A1102218A155F08F700DF013F
:1012D0005E086102031D78297708DF002E30E700E1
:1012E0008A1102218A155F08F7002030DF050030DF
:1012F0003030DF1E8A29DF125E08031DDF03770806
:10130000DF002D30E7008A1102218A155F08F700FF
:10131000DF013030F7077708E7008A1102218A15CC
:1013200083106608EA006508E9006408E8006308BD
:10133000E700EE01ED01EC010A30EB008318A32970
:101340006F3084008313F701F801F901FA01EF010E
:10135000F001F101F2016E086D046C046B040319D5
:10136000E1292030F3000310E70DE80DE90DEA0D47
:10137000EF0DF00DF10DF20D6E087202031DCA297A
:101380006D087102031DCA296C087002031DCA2969
:101390006B086F02031CDB296B08EF026C08031C4F
:1013A0006C0FF0026D08031C6D0FF1026E08031C38
:1013B0006E0FF2020314F70DF80DF90DFA0DF30B91
:1013C000B3296F088000840A70088000840A7108BD
:1013D0008000840A720880007A08E6007908E50037
:1013E0007808E4007708E300E10BDD280800D60167
:1013F000061ED60AD701861ED70AD801061FD80AAC
:10140000D901861FD90ABA0803190E2AD60803196A
:101410000D2ABA018A11A7238A15492AD708031968
:10142000192A0130BA000A168A1100200A128A15F8
:10143000492A3B080319262A013A03192F2A033A9D
:1014400003192F2A013A0319402A492AD8080319F7
:101450002E2A0130BB008A11A7238A15492AD908F0
:101460000319372ABB018A11A7238A153F2AD808F6
:1014700003193F2A0330BB008A11A7238A15492A82
:10148000D9080319482A0230BB008A11A7238A15FC
:10149000492A0B108A110A122B282830BD000C3063
:1014A000BE000130BF000630C000081088100811CF
:1014B0000F30831608058800081088100811831261
:1014C000AB018B1BAB178B130F30E8008A11EE209A
:1014D0008A15AB1B8B170130BC003C08033C031C76
:1014E000902A0330EF006F0EF039F7000F30080537
:1014F00077048800000008140230F700F70B7E2AFA
:10150000812A00000810AB018B1BAB178B13053031
:10151000E8008A11EE208A15AB1B8B17BC0A6D2AD6
:101520000230EF006F0EF039F7000F300805770436
:101530008800000008140230F700F70B9D2AA02A4B
:1015400000000810AB018B1BAB178B130530E800B4
:101550008A11EE208A15AB1B8B17BC013C08033C9B
:10156000031C252B3D303C07840083130008C10079
:10157000EC014108ED008316081088100811831251
:1015800088100F3083160805F0388800831208157C
:101590000000081400000808F700080E0F39F800D2
:1015A0007808EF00081000000814D62AD72A000097
:1015B0000808F700080E0F39F8007808EE00081048
:1015C0000F3083160805880083126F0EF700F03085
:1015D000F70577086E04F8007808EE00EE1BC12AC4
:1015E0006C1C88106C18881400000811000008108A
:1015F0006D0EEE000F30EE056E08EF006F0EF03945
:10160000F7000F3008057704880000000814023046
:10161000F700F70B092B0C2B000008106D080F3991
:10162000EE006E08EF006F0EF039F7000F3008057E
:1016300077048800000008140230F700F70B1E2B17
:10164000212B00000810BC0AAE2A8A150A123B2E74
:101650000230E8000130E900690B2F2B322B4030BB
:10166000EA00332BEA0101306802EA076A08803891
:10167000EB00EC016B08ED008316081088100811D0
:10168000831288100F3083160805F0388800831203
:1016900008150000081400000808F700080E0F39AC
:1016A000F8007808EF00081000000814572B582B9A
:1016B00000000808F700080E0F39F8007808EE005F
:1016C00008100F3083160805880083126F0EF7008C
:1016D000F030F70577086E04F8007808EE00EE1B8E
:1016E000422B6C1C88106C18881400000811000034
:1016F00008106D0EEE000F30EE056E08EF006F0E55
:10170000F039F7000F30080577048800000008144E
:101710000230F700F70B8A2B8D2B000008106D08A4
:101720000F39EE006E08EF006F0EF039F7000F3042
:10173000080577048800000008140230F700F70B52
:101740009F2BA22B000008104F3003178D00003094
:101750008F000313AB018B1BAB178B138A11512323
:101760008A15AB1B8B17AB018B1BAB178B132D3063
:10177000E8008A11EE208A15AB1B8B170130E800B8
:101780000230E900690BC52BC82B4030EA00C92B99
:10179000EA0101306802EA076A088038EB00EC01D0
:1017A0006B08ED008316081088100811831288104A
:1017B0000F3083160805F0388800831208150000E2
:1017C000081400000808F700080E0F39F800780820
:1017D000EF00081000000814ED2BEE2B00000808A5
:1017E000F700080E0F39F8007808EE0008100F30E7
:1017F00083160805880083126F0EF700F030F70596
:1018000077086E04F8007808EE00EE1BD82B6C1CED
:1018100088106C18881400000811000008106D0E64
:10182000EE000F30EE056E08EF006F0EF039F70096
:101830000F30080577048800000008140230F70014
:10184000F70B202C232C000008106D080F39EE0038
:101850006E08EF006F0EF039F7000F3008057704BF
:101860008800000008140230F700F70B352C382CE4
:1018700000000810553003178D0000308F0003134F
:10188000AB018B1BAB178B138A1151238A15AB1B32
:101890008B17AB018B1BAB178B132D30E8008A1114
:1018A000EE208A15AB1B8B170130E8000230E900EF
:1018B000690B5B2C5E2C4030EA005F2CEA010130A2
:1018C0006802EA076A088038EB00EC016B08ED005B
:1018D0008316081088100811831288100F308316A1
:1018E0000805F0388800831208150000081400006D
:1018F0000808F700080E0F39F8007808EF00081004
:1019000000000814832C842C00000808F700080E3F
:101910000F39F8007808EE0008100F30831608051C
:10192000880083126F0EF700F030F70577086E0419
:10193000F8007808EE00EE1B6E2C6C1C88106C18FA
:10194000881400000811000008106D0EEE000F3022
:10195000EE056E08EF006F0EF039F7000F30080546
:1019600077048800000008140230F700F70BB62C4B
:10197000B92C000008106D080F39EE006E08EF005A
:101980006F0EF039F7000F3008057704880000006B
:1019900008140230F700F70BCB2CCE2C00000810F7
:1019A0005E3003178D0000308F000313AB018B1BDB
:1019B000AB178B138A1151238A15AB1B8B17AB0105
:1019C0008B1BAB178B132D30E8008A11EE208A1584
:1019D000AB1B8B170130E8000230E900690BF12CDA
:1019E000F42C4030EA00F52CEA0101306802EA07E5
:1019F0006A088038EB00EC016B08ED0083160810D4
:101A000088100811831288100F3083160805F038EB
:101A10008800831208150000081400000808F70069
:101A2000080E0F39F8007808EF00081000000814BD
:101A3000192D1A2D00000808F700080E0F39F800BC
:101A40007808EE0008100F3083160805880083120E
:101A50006F0EF700F030F70577086E04F80078088D
:101A6000EE00EE1B042D6C1C88106C18881400000E
:101A70000811000008106D0EEE000F30EE056E0824
:101A8000EF006F0EF039F7000F300805770488007B
:101A9000000008140230F700F70B4C2D4F2D00000A
:101AA00008106D080F39EE006E08EF006F0EF03968
:101AB000F7000F3008057704880000000814023092
:101AC000F700F70B612D642D000008106730031735
:101AD0008D0000308F000313AB018B1BAB178B13F2
:101AE0008A1151238A15AB1B8B17AB018B1BAB17CC
:101AF0008B132D30E8008A11EE208A15AB1B8B1753
:101B00000130E800E900690B862D892D4030EA009C
:101B10008A2DEA0101306802EA076A088038EB0082
:101B2000EC016B08ED008316081088100811831271
:101B300088100F3083160805F038880083120815C6
:101B40000000081400000808F700080E0F39F8001C
:101B50007808EF00081000000814AE2DAF2D00002B
:101B60000808F700080E0F39F8007808EE00081092
:101B70000F3083160805880083126F0EF700F030CF
:101B8000F70577086E04F8007808EE00EE1B992D33
:101B90006C1C88106C1888140000081100000810D4
:101BA0006D0EEE000F30EE056E08EF006F0EF0398F
:101BB000F7000F3008057704880000000814023091
:101BC000F700F70BE12DE42D000008106D080F3928
:101BD000EE006E08EF006F0EF039F7000F300805C9
:101BE00077048800000008140230F700F70BF62D88
:101BF000F92D00000810AB018B1BAB178B130C30B9
:101C0000E7008A1102218A15AB1B8B17703003176E
:101C10008D0000308F000313AB018B1BAB178B13B0
:101C20008A1151238A15AB1B8B17AB018B1BAB178A
:101C30008B132D30E8008A11EE208A15AB1B8B1711
:101C40008A150A12592E03081F3983008130831622
:101C50009900A630980090308312980083161F14C4
:101C60009F141F159F1107309C00831383128B153F
:101C7000C0308B044D2A83161F109F101F119F1117
:101C80001F1383121F179F1783169F1783121F148A
:101C9000BB01BA01B901B801AF01AE01AD01AC01A0
:101CA000B301B201B101B001B701B601B501B40190
:101CB000282BAB018B1BAB178B138A11A7238A151B
:101CC000AB1B8B17BA080319702EAB018B1BAB171C
:101CD0008B130A168A1100200A128A15AB1B8B1768
:101CE000AB018B1BAB178B130A30E8008A11EE2077
:0E1CF0008A15AB1B8B17622E0030F8006300C4
:102000000130E800E900690B062809284030EA00A1
:102010000A28EA0101306802EA076A088038EB0002
:10202000EC016B08ED00831608108810081183126C
:1020300088100F3083160805F038880083120815C1
:102040000000081400000808F700080E0F39F80017
:102050007808EF000810000008142E282F28000030
:102060000808F700080E0F39F8007808EE0008108D
:102070000F3083160805880083126F0EF700F030CA
:10208000F70577086E04F8007808EE00EE1B1928B3
:102090006C1C88106C1888140000081100000810CF
:1020A0006D0EEE000F30EE056E08EF006F0EF0398A
:1020B000F7000F300805770488000000081402308C
:1020C000F700F70B61286428000008106D080F392D
:1020D000EE006E08EF006F0EF039F7000F300805C4
:1020E00077048800000008140230F700F70B762808
:1020F0007928000008103B0803198828013A0319C1
:10210000C62A033A0319C62A013A0319752C242E4C
:102110000030F8001F08C73978049F002030F7000E
:10212000F70B9028932800001F151F199528831678
:102130001E088312B8001E08B9003908DB003808F1
:10214000DA008E30F7005B08F8005A08F900FA014F
:10215000F808031DB5287908F800F9010830F702DE
:10216000F808031DB528F701BD280310F81BBC288B
:10217000F90DF80DF703B528F8137A08EA00790885
:10218000E9007808E8007708E700EE01ED017A3011
:10219000EC008730EB000A128A1500200A168A111B
:1021A0007A08DD007908DC007808DB007708DA00BF
:1021B0005D08E1005C08E0005B08DF005A08DE0013
:1021C000E501C030E4007F30E3008830E2005E08C3
:1021D0000319AC29EA0062080319AC29EA02031CBE
:1021E000F6287F30EA070318AC29FC288130EA0280
:1021F000031CAC290319AC296A08F700F801F9019E
:10220000FA01E9015F08E800E8176008E7006108E3
:10221000E6001930EA006508E60203181F290130BC
:10222000E70203181F29E80203181F29E90203180F
:102230001F29E90AE80AE70A6508E6075129640840
:10224000E70203183A290130E80203183A29E902A3
:1022500003183A29E90AE80A6408E7076508E60767
:10226000031C5129E70A031D5129E80A031D5129BE
:10227000E90A512963088038E8020318502901301F
:10228000E90203185029E90A63088038E80764085E
:10229000E707031C2E29E80A031D2E29E90A2E2927
:1022A0007A14EA0B54295F290310E60DE70DE80DB7
:1022B000E90D0310FA0DF90DF80DEB0D0B296B1C50
:1022C00067290310F80CF90CFA0CEB0C6A29F703D8
:1022D0000319AC29EB1B93290310E60DE70DE80D5C
:1022E000E90D6508E60203187F290130E7020318AB
:1022F0007F29E80203187F29E902031CA229640848
:10230000E70203188A290130E80203188A29E90242
:10231000031CA22963088038E802031893290130BE
:10232000E902031CA229FA0A031DA229F90A031DC6
:10233000A229F80A031DA229F70A0319AC29F80CEF
:10234000F90CFA0C5F08EA006308EA06EA1FAA29FA
:10235000F817B029F813B029F701F801F901FA01CB
:102360007A08AF007908AE007808AD007708AC00B5
:10237000B93003178D0000308F000A120313512368
:102380000A160130E8000230E900690BC829CB29A0
:102390004030EA00CC29EA0101306802EA076A0805
:1023A0008038EB00EC016B08ED00831608108810F4
:1023B0000811831288100F3083160805F038880042
:1023C000831208150000081400000808F700080E22
:1023D0000F39F8007808EF00081000000814F02901
:1023E000F12900000808F700080E0F39F8007808F6
:1023F000EE0008100F3083160805880083126F0E58
:10240000F700F030F70577086E04F8007808EE0062
:10241000EE1BDB296C1C88106C1888140000081156
:10242000000008106D0EEE000F30EE056E08EF0094
:102430006F0EF039F7000F300805770488000000B0
:1024400008140230F700F70B232A262A0000081090
:102450006D080F39EE006E08EF006F0EF039F700CF
:102460000F30080577048800000008140230F700D8
:10247000F70B382A3B2A000008102030E7000A1228
:1024800002210A162030E7000A1202210A16203023
:10249000E7000A1202210A16433084002F08DD00EB
:1024A0002E08DC002D08DB002C08DA000130DE00ED
:1024B0000A128A1575200A168A11C63003178D0074
:1024C00000308F00031405300313DA000B08DB0023
:1024D0008B13831603178C170C1400000000831253
:1024E0000313DB1B8B1703189F2A03170C087F3974
:1024F0000313DB0003170D080313DC0003170F0899
:102500000313DD005B08E7000A1202210A165C08CB
:1025100003178D0003135D0803178F0003130B08C7
:10252000DE008B13831603178C170C1400000000B9
:1025300083120313DE1B8B17DA0B9F2AC02A0317A3
:102540000C0D0E0D7F390313DB0003170D08031369
:10255000DC0003170F080313DD005B08E7000A1215
:1025600002210A165C0803178D0003135D08031788
:102570008F008D0A03198F0A03100313DA0B662AE2
:102580003230E8000A12EE200A16242E0830F80035
:102590001F08C73978049F002030F700F70BCE2AB8
:1025A000D12A00001F151F19D32A83161E08831273
:1025B000B8001E08B9003908DB003808DA008E3090
:1025C000F7005B08F8005A08F900FA01F808031D43
:1025D000F32A7908F800F9010830F702F808031D1A
:1025E000F32AF701FB2A0310F81BFA2AF90DF80D5C
:1025F000F703F32AF8137A08EA007908E900780863
:10260000E8007708E700C930EE00EB30ED0023303A
:10261000EC007930EB000A128A1500200A168A11A4
:102620007A08B3007908B2007808B1007708B000E2
:10263000CA3003178D0000308F000A120313512394
:102640000A160130E8000230E900690B282B2B2B19
:102650004030EA002C2BEA0101306802EA076A08E0
:102660008038EB00EC016B08ED0083160810881031
:102670000811831288100F3083160805F03888007F
:10268000831208150000081400000808F700080E5F
:102690000F39F8007808EF00081000000814502BDC
:1026A000512B00000808F700080E0F39F8007808D1
:1026B000EE0008100F3083160805880083126F0E95
:1026C000F700F030F70577086E04F8007808EE00A0
:1026D000EE1B3B2B6C1C88106C1888140000081132
:1026E000000008106D0EEE000F30EE056E08EF00D2
:1026F0006F0EF039F7000F300805770488000000EE
:1027000008140230F700F70B832B862B000008100B
:102710006D080F39EE006E08EF006F0EF039F7000C
:102720000F30080577048800000008140230F70015
:10273000F70B982B9B2B00000810D33003178D004C
:1027400000308F00031004300313DA000B08DB00A5
:102750008B13831603178C170C14000000008312D0
:102760000313DB1B8B170318DF2B03170C087F39B0
:102770000313DB0003170D080313DC0003170F0816
:102780000313DD005B08E7000A1202210A165C0849
:1027900003178D0003135D0803178F0003130B0845
:1027A000DE008B13831603178C170C140000000037
:1027B00083120313DE1B8B17DA0BDF2B002C03179E
:1027C0000C0D0E0D7F390313DB0003170D080313E7
:1027D000DC0003170F080313DD005B08E7000A1293
:1027E00002210A165C0803178D0003135D08031706
:1027F0008F008D0A03198F0A03100313DA0BA62B1F
:10280000C93084003308DD003208DC003108DB0009
:102810003008DA000230DE000A128A1575200A1626
:102820008A11D73003178D0000308F000314083051
:102830000313DA000B08DB008B13831603178C17C6
:102840000C140000000083120313DB1B8B1703180A
:10285000532C03170C087F390313DB0003170D08F3
:102860000313DC0003170F080313DD005B08E70008
:102870000A1202210A165C0803178D0003135D0873
:1028800003178F0003130B08DE008B138316031747
:102890008C170C140000000083120313DE1B8B172F
:1028A000DA0B532C742C03170C0D0E0D7F39031308
:1028B000DB0003170D080313DC0003170F080313D5
:1028C000DD005B08E7000A1202210A165C08031704
:1028D0008D0003135D0803178F008D0A03198F0AFB
:1028E00003100313DA0B1A2C242E1030F8001F08E3
:1028F000C73978049F002030F700F70B7D2C802C1F
:1029000000001F151F19822C83161E088312B800A1
:102910001E08B9003908DB003808DA008E30F700ED
:102920005B08F8005A08F900FA01F808031DA22C08
:102930007908F800F9010830F702F808031DA22C05
:10294000F701AA2C0310F81BA92CF90DF80DF703B9
:10295000A22CF8137A08EA007908E9007808E80060
:102960007708E7007A30EE00BC30ED001C30EC0058
:102970008130EB000A128A1500200A168A117A08A3
:10298000B7007908B6007808B5007708B400DC30E5
:1029900003178D0000308F000A12031351230A160B
:1029A0000130E8000230E900690BD72CDA2C403006
:1029B000EA00DB2CEA0101306802EA076A08803885
:1029C000EB00EC016B08ED0083160810881008116D
:1029D000831288100F3083160805F03888008312A0
:1029E00008150000081400000808F700080E0F3949
:1029F000F8007808EF00081000000814FF2C002DE4
:102A000000000808F700080E0F39F8007808EE00FB
:102A100008100F3083160805880083126F0EF70028
:102A2000F030F70577086E04F8007808EE00EE1B2A
:102A3000EA2C6C1C88106C18881400000811000027
:102A400008106D0EEE000F30EE056E08EF006F0EF1
:102A5000F039F7000F3008057704880000000814EB
:102A60000230F700F70B322D352D000008106D08ED
:102A70000F39EE006E08EF006F0EF039F7000F30DF
:102A8000080577048800000008140230F700F70BEF
:102A9000472D4A2D00000810E53003178D00003047
:102AA0008F00031004300313DA000B08DB008B13D4
:102AB000831603178C170C140000000083120313F5
:102AC000DB1B8B1703188E2D03170C087F3903139C
:102AD000DB0003170D080313DC0003170F080313B3
:102AE000DD005B08E7000A1202210A165C080317E2
:102AF0008D0003135D0803178F0003130B08DE001E
:102B00008B13831603178C170C140000000083121C
:102B10000313DE1B8B17DA0B8E2DAF2D03170C0D55
:102B20000E0D7F390313DB0003170D080313DC00C0
:102B300003170F080313DD005B08E7000A120221E8
:102B40000A165C0803178D0003135D0803178F0036
:102B50008D0A03198F0A03100313DA0B552D443025
:102B600084003708DD003608DC003508DB00340857
:102B7000DA000130DE000A128A1575200A168A1161
:102B8000EA3003178D0000308F0003100730031365
:102B9000DA000B08DB008B13831603178C170C1459
:102BA0000000000083120313DB1B8B170318022E97
:102BB00003170C087F390313DB0003170D080313F9
:102BC000DC0003170F080313DD005B08E7000A129F
:102BD00002210A165C0803178D0003135D08031712
:102BE0008F0003130B08DE008B13831603178C175B
:102BF0000C140000000083120313DE1B8B17DA0B8A
:102C0000022E232E03170C0D0E0D7F390313DB004C
:102C100003170D080313DC0003170F080313DD006F
:102C20005B08E7000A1202210A165C0803178D00F0
:102C300003135D0803178F008D0A03198F0A031011
:0A2C40000313DA0BC92D242E08003F
:023E00000800B8
:02400E007A3FF7
:00000001FF
;PIC16F877A
;CRC=25CA  CREATED="11-may.-24 18:54"
