:020000040000FA
:020000000528D1
:06000A00850183160313BB
:1000100006309F003F3085008601831205080739AE
:10002000820719281B281E2827282F283D28192831
:10003000192886010E28FF3086000E280310013093
:1000400086004420860D4420861F21280E28031098
:10005000803086004420860C4420061C2A28031089
:10006000803086004420860C4420061C3228442020
:10007000860D4420861F37280E2800308600442035
:10008000FF30860044200E28DF30A1005030A2004F
:100090006030A300A30B4A28A20B4828A10B4628D6
:0200A000080056
:00000001FF
