:020000040000FA
:020000000528D1
:06000A00850183160313BB
:1000100006309F003F308500860187018312050866
:100020000F398207222827282D28332839283F28EE
:1000300045284B28512822282228222822282228F5
:100040002228222857200630870086010F285720B3
:1000500006308700043086000F28572006308700BE
:10006000083086000F2857200630870001308600B0
:100070000F28572006308700023086000F285720AF
:1000800006308700053086000F285720063087008D
:100090000A3086000F285720063087000930860076
:1000A0000F28572006308700063086000F280130C1
:1000B000A1001030A2006030A300A30B5D28A20BAA
:0800C0005B28A10B5928080080
:00000001FF
