:020000040000FA
:020000000528D1
:06000A00850183160313BB
:1000100000308600860106309F003F308500831245
:100020000508073982071B281E2830284228452842
:100030001B281B281B280030860010280130A40034
:1000400048208030860048204030860048202030FC
:1000500086004820103086004820A40B202863002A
:100060000130A5004820103086004820203086004E
:100070004820403086004820803086004820A50B6C
:10008000322863000530A40020280A30A500322859
:100090000130E0000230D0000000FA309100000092
:0E00A000910B4F28D00B4C28E00B4A2808008B
:00000001FF
