:020000040000FA
:020000000528D1
:06000A00850183160313BB
:1000100000308600860106309F003F308500831245
:100020000508073982071B281E2830284228452842
:100030001B281B281B280030860010280130A40034
:1000400048200830860048200430860048200230CE
:1000500086004820013086004820A40B2028630039
:100060000130A5004820013086004820023086007B
:100070004820043086004820083086004820A50B20
:10008000322863000530A40020280A30A500322859
:100090001130A100D000A2006030A300A30B4E28B5
:0A00A000A20B4C28A10B4A2808000F
:00000001FF
