:020000040000FA
:020000000528D1
:06000A008501860183164A
:10001000031300309F008801FF30860087018312A0
:100020001A2280302B22AA01AB01AC01A401A60147
:10003000A701A801A901A3012B1CAE212B140608BE
:10004000073982072A283E2845284A284F2855285C
:100050001C281C2859200830A4002C1C4E212C14CC
:10006000C0302B22A90D03183130031C303032224E
:10007000A40B32286622AB01AC011C2859202A1C93
:10008000FF202A140608662213285920B5202921AA
:100090006622132859206B206221662213286220D1
:1000A0003B075922D2206622132859203B2259228D
:1000B0001328CD309F00860150221F195C281E088E
:1000C000A9000800C5309F00860150221F1965282D
:1000D0001E08A9000800B0000030B100B200B30053
:1000E000B400B500B60033303002031C7A28B000EB
:1000F000B10A73283008B600A72033303002031C41
:100100008428B000B40A7D28B60001303202031CF6
:100110008C28B200360881280030B3003008B600C1
:10012000A72033303002031C9828B000B50A91286C
:10013000B60001303202031DA028B200360895280F
:100140003030B1043030B4043030B5040800360823
:10015000B0070318B120B30A38303306031DA728AF
:10016000080001303207B20008001E08BC00F03061
:10017000BC053C0EBC00C420B9001E08BC000F30FA
:10018000BC05C420BA00080009303C02031CCC287E
:100190000319CC28CF28080030303C07CB28373053
:1001A0003C07CB283B22592280302B225022502260
:1001B00054303222453032224D30322250303222F9
:1001C00045303222523032224130322254303222F3
:1001D000553032225230322241303222C0302B226E
:1001E000290829073E222808303E32222708303EBF
:1001F00032222608303E32224330322208003B228F
:10020000592280302B225022502244303222453055
:10021000322243303222493032224D3032224130B4
:1002200032224C3032222030322220303222203012
:10023000322220303222C0302B2229083E222808C8
:10024000303E32222708303E32222608303E32220B
:1002500008003B22592280302B2250225022483065
:10026000322245303222583032224130322244305C
:1002700032224530322243303222493032224D3050
:100280003222413032224C303222C0302B22390807
:10029000880032223A088800322208003B22592284
:1002A000592280302B2242303222493032224E30C5
:1002B00032224130322252303222493032224F3003
:1002C000322208003B225922592280302B225630FC
:1002D00032224F3032224C303222543032224130DE
:1002E00032224A30322245303222C0302B223108AD
:1002F000880032222E3088003222340888003222D0
:10030000350888003222563088003222203088009A
:1003100032222030880032222030880032222030E1
:100320008800322208003B22592280302B22503094
:100330003222523032224530322253303222533070
:100340003222203032225330322254303222413095
:100350003222523032225430322208003B225922BB
:1003600080302B22413032226C30322265303222F2
:1003700078303222693032227330322220303222F9
:1003800053303222613032226E30322263303222D8
:1003900068303222653032227A303222C0302B224D
:1003A000463032222E303222493032222E30322252
:1003B00020303222553032224E3032224130322229
:1003C0004D30322208003B22592280302B2250220D
:1003D0005022503032227230322265303222733055
:1003E0003222693032226F3032226E303222613056
:1003F0003222C0302B22533032225430322241304C
:1004000032225230322254303222203032227030A6
:100410003222613032227230322261303222203078
:100420003222693032226E30322269303222743008
:100430003222080030302B22592230302B22592210
:1004400038302B220C302B2201302B2206302B226D
:1004500002302B22080088005022871007145022F7
:100460000710080088005022871407145022071034
:1004700050225022080001302B220800A3006430D3
:100480002302031C462AA80AA3003F2A0A3023029B
:10049000031C4D2AA70AA300462A2308A600080029
:1004A0000230A100A430A000A00B542AA10B522AB4
:1004B00008000330A000FF30A100FF30A200A20B13
:1004C0005F2AA10B5D2AA00B5B2A08001F30A00049
:1004D000FF30A100FF30A200A20B6C2AA10B6A2AF8
:0604E000A00B682A0800D1
:00000001FF
