:020000040000FA
:020000000528D1
:06000A008501860183164A
:10001000031300309F008801FF30860087018312A0
:10002000E0218030F121AA01AB01AC01A401A601BD
:10003000A701A801A901A3012B1C74212B140608F8
:10004000073982072A283E2848284D285228562852
:100050001C281C285A200830A4002C1C20212C14F9
:10006000C030F121A90D03183130031C3030F821C4
:10007000A40B32282C22AB01AC011C285A202A1CCC
:10008000D1202A140608013C031948282C221328E1
:100090005A20B420FB202C2213285A206A20342115
:1000A0002C221328632001221F2213285A20012208
:1000B0001F221328CD309F00860116221F195D28AC
:1000C0001E08A9000800C5309F00860116221F19CE
:1000D00066280800B0000030B100B200B300B400E0
:1000E000B500B60033303002031C7928B000B10AE5
:1000F00072283008B600A62033303002031C832853
:10010000B000B40A7C28B60001303202031C8B28F0
:10011000B200360880280030B3003008B600A620B0
:1001200033303002031C9728B000B50A9028B6007F
:1001300001303202031D9F28B20036089428303067
:10014000B1073030B4073030B50708003608B007C3
:100150000318B020B30A38303306031DA628080060
:1001600001303207B20008001E08BB00F030BB05AA
:100170003B0EBB00C320B9001E08BB000F30BB05FF
:10018000C320BA00080009303B02031CCB28031926
:10019000CB28CE28080030303B07CA2837303B0731
:1001A000CA2801221F228030F12116221622443053
:1001B000F8214530F8214330F8214930F8214D30FD
:1001C000F8214130F8214C30F8212030F82120303E
:1001D000F8212030F8212030F821C030F121290801
:1001E00004222808303EF8212708303EF82126084E
:1001F000303EF821080001221F228030F121162212
:1002000016224830F8214530F8215830F821413085
:10021000F8214430F8214530F8214330F8214930A5
:10022000F8214D30F8214130F8214C30F821C03010
:10023000F12139088800F8213A088800F8210800DF
:1002400001221F221F228030F1214230F821493043
:10025000F8214E30F8214130F8215230F821493050
:10026000F8214F30F821080001221F221F22803080
:10027000F1215630F8214F30F8214C30F82154301C
:10028000F8214130F8214A30F8214530F821C030BA
:10029000F12131088800F8212E308800F821340837
:1002A0008800F82135088800F82156308800F821A8
:1002B000080001221F228030F1215030F8215230F5
:1002C000F8214530F8215330F8215330F8212030FF
:1002D000F8215330F8215430F8214130F8215230C0
:1002E000F8215430F821080001221F228030F1212A
:1002F0004130F8216C30F8216530F8217830F82150
:100300006930F8217330F8212030F8215330F8217A
:100310006130F8216E30F8216330F8216830F8211F
:100320006530F8217A30F821C030F1214630F821CB
:100330002E30F8214930F8212E30F8212030F821D4
:100340005530F8214E30F8214130F8214D30F82158
:10035000080001221F228030F1211622162250307F
:10036000F8217230F8216530F8217330F8216930B6
:10037000F8216F30F8216E30F8216130F821C0305B
:10038000F1215330F8215430F8214130F821523016
:10039000F8215430F8212030F8217030F8216130F4
:1003A000F8217230F8216130F8212030F8216930CD
:1003B000F8216E30F8216930F8217430F8210800F6
:1003C0003030F1211F223030F1211F223830F1214D
:1003D0000C30F1210130F1210630F1210230F12100
:1003E000080088001622871007141622071008003C
:1003F00088001622871407141622071016221622C8
:1004000008000130F1210800A30064302302031C1E
:100410000C2AA80AA300052A0A302302031C132A67
:10042000A70AA3000C2A2308A60008000230A10096
:10043000A430A000A00B1A2AA10B182A0800033030
:10044000A000FF30A100FF30A200A20B252AA10BC3
:10045000232AA00B212A08001F30A000FF30A10092
:10046000FF30A200A20B322AA10B302AA00B2E2AA9
:02047000080082
:00000001FF
