:1000000006308A00582E00000A108A100A11820752
:1000100028340C34013406340C00D4326D383A10D4
:1000200025182E19661043004537E3326E32E93247
:100030006E326F10F6326E3A693661326F390000F7
:100040004138E1336137E437202B6537F434EC3045
:10005000E4377200CC3A7A1D2010A519F51225104C
:1000600080214537E3326E32E9326E326F10EC3068
:100070006D38613961004138E1336137E43720364A
:10008000E136F030F23000003E3084008313000887
:10009000031957280630F800F701F70B4D28F80B25
:1000A0004C287B30F700F70B5328800B4A280800B8
:1000B00045185C2808125D2808168316081283125A
:1000C000C51864288812652888168316881283123A
:1000D00045196C2808136D28081783160813831216
:1000E000C51974288813752888178316881300008B
:1000F0008811831288150230F700F70B7D288028BD
:1001000000008316881183128811080083160811D5
:10011000831208116330F700F70B8C288F28C20870
:100120000319972883160811831208159B28831634
:100130000811831208110000831688118312881198
:10014000430EC4000F30C4054408C50058204308BE
:100150000F39C400C5005820080083160811831207
:10016000081183168811831288110F30BE004420B5
:10017000B9013908023C031CC5280330C5005820CA
:100180000530BE004420B90AB9280230C500582005
:10019000B9013908033C031CD92839080420BA00E6
:1001A000C2013A08C30086200530BE004420B90AC7
:1001B000C9288A110A12782E41080139013C031D11
:1001C000E6288316081283120816EA2883160812F6
:1001D0008312081241080239023C031DF4288316D9
:1001E000881283128816F8288316881283128812C0
:1001F00041080439043C031D0229831608138312A5
:1002000008170629831608138312081341080839B2
:10021000083C031D1029831688138312881714299C
:1002200083168813831288136330F700F70B16299F
:100230001929C008031921298316081183120815EA
:100240002529831608118312081183168811831239
:1002500088150230F700F70B2B292E290000831692
:1002600088118312881108003E0EBF000F30BF05B1
:100270003D08C0003F08C100DC203E080F39BF0028
:100280003D08C0003F08C100DC200800390DF70020
:10029000F70DF70DF830F7057708403EBA00BD01BD
:1002A0003A08BE0034218A110A12892EBB013B088C
:1002B000073C031C6A293B083907840083133A185A
:1002C00083170008BC000130BD003C08BE0034218B
:1002D000BB0A57298A110A128D2E8E30F7003A0870
:1002E000F8003908F900FA01F808031D8129790896
:1002F000F800F9010830F702F808031D8129F70119
:1003000089290310F81B8829F90DF80DF7038129B5
:10031000F813080039080319FA29C1003D08031928
:10032000FA29C10703189B297F30C102031CFA294F
:100330000319FA299F298130C1070318FA294108B6
:10034000F700F801F901FA013A08C500C5173B08A2
:10035000C4003C08C3001830C100C201431CC829B6
:100360004008FA07031CBA29F90A031DBA29F80A3A
:100370000319C2173F08F907031CC129F80A03191A
:10038000C2173E08BB00BB173B08F8070318C2178B
:10039000C20DF80CF90CFA0CC50CC40CC30C0310FC
:1003A000C10BAD290130F7070318FA29F81BDF2923
:1003B000C50DFA0DF90DF80DF7030319FA29C51F3C
:1003C000F029FA0A031DF029F90A031DF029F80A99
:1003D000031DF029F80CF90CFA0CF70A0319FA2995
:1003E0003A08C2003E08C206C21FF829F817FE29C3
:1003F000F813FE29F701F801F901FA0108003F0B93
:10040000022A052A4030C000062AC00101303E02FF
:10041000C00740088038C100C2014108C3008620DF
:1004200008003D080C3A03191C2A063A0319242A2D
:10043000023A03192A2A2F2AC2010130C30086205A
:100440000230BE004420342A0130BE000230BF001A
:10045000FF21342AC2011030C3008620342A013023
:10046000C2003D08C300862008003C08F8013B029A
:1004700003183D2A3B08F700492AF7010830BD0060
:10048000BB0DF70D3C0877020318F700F80DBD0B04
:10049000402A08000B08B9008B13831603178C172A
:1004A0000C140000000083120313B91B8B170317F1
:1004B0000C087F390319A02A0313B90003170D088C
:1004C0000313BA0003170F080313BB0039080C1EEF
:1004D000672A99003A0803178D0003133B08031796
:1004E0008F0003130B08BC008B13831603178C17A4
:1004F0000C140000000083120313BC1B8B1703179E
:100500000C0D0E0D7F390319A02A0313B900031730
:100510000D080313BA0003170F080313BB003908B3
:100520000C1E902A99003A0803178D0003133B080C
:1005300003178F008D0A03198F0A03134A2A031722
:10054000031308000830F8001F08C73978049F001B
:100550002030F700F70BAA2AAD2A00001F151F193B
:10056000AF2A1E08BA01B9006D217A08AF007908D8
:10057000AE007808AD007708AC002F08BC002E084C
:10058000BB002D08BA002C08B900C930C000EB3000
:10059000BF002330BE007930BD008A217A08B30045
:1005A0007908B2007808B1007708B0003308BC00C1
:1005B0003208BB003108BA003008B900C001BF01E1
:1005C0004830BE008530BD008A217A08BC00790819
:1005D000BB007808BA007708B9003C08C0003B08A7
:1005E000BF003A08BE003908BD002930C4005C30A5
:1005F000C3001F30C2008130C1003D080319C22B67
:10060000C90041080319C22BC902031C0C2B7F30FF
:10061000C9070318C22B122B8130C902031CC22B3D
:100620000319C22B4908F700F801F901FA01C801C2
:100630003E08C700C7173F08C6004008C50019306C
:10064000C9004408C5020318352B0130C60203183F
:10065000352BC7020318352BC8020318352BC80ADF
:10066000C70AC60A4408C507672B4308C602031811
:10067000502B0130C7020318502BC8020318502B0F
:10068000C80AC70A4308C6074408C507031C672BE6
:10069000C60A031D672BC70A031D672BC80A672BF1
:1006A00042088038C7020318662B0130C8020318BD
:1006B000662BC80A42088038C7074308C607031CD0
:1006C000442BC70A031D442BC80A442B7A14C90BB8
:1006D0006A2B752B0310C50DC60DC70DC80D031071
:1006E000FA0DF90DF80DCA0D212B4A1C7D2B0310B4
:1006F000F80CF90CFA0CCA0C802BF7030319C22B67
:10070000CA1BA92B0310C50DC60DC70DC80D440883
:10071000C5020318952B0130C6020318952BC7029A
:100720000318952BC802031CB82B4308C6020318F4
:10073000A02B0130C7020318A02BC802031CB82B42
:1007400042088038C7020318A92B0130C802031CD5
:10075000B82BFA0A031DB82BF90A031DB82BF80AA7
:10076000031DB82BF70A0319C22BF80CF90CFA0C6D
:100770003E08C9004208C906C91FC02BF817C62B7E
:10078000F813C62BF701F801F901FA017A08B7004E
:100790007908B6007808B5007708B4008314BC0166
:1007A000BB014830BA008530B9003708C0003608B0
:1007B000BF003508BE003408BD0080308318BE0677
:1007C000C301C4013A08C2003E08C2063908031931
:1007D000CD2CC100F7003D080319D62CC102031926
:1007E000722C031C302C3E08C700C7173F08C600F8
:1007F0004008C500C4010310C70CC60CC50CC40CCE
:10080000C10BFA2BC21F072C4314EA2C43104110D2
:1008100043163C3084008313FF2C4312C21B1A2C56
:10082000411C252CC70CC60CC50CC40CF70A0319B7
:10083000E52C252CC71B282C0310C40DC50DC60D97
:10084000C70DF7030319E52C1A2C4317922C4313F9
:100850003A08C200C21F2E2CC717DE2CC713DE2C8D
:100860003D08C100F7003908C1023A08C700C717A0
:100870003B08C6003C08C500C4010310C70CC60CE9
:10088000C50CC40CC10B3C2CC21F492CC314EA2C50
:10089000C3104110C316403084008313FF2CC312D1
:1008A000C21B5C2C411C672CC70CC60CC50CC40CAD
:1008B000F70A0319E52C672CC71B6A2C0310C40D1B
:1008C000C50DC60DC70DF7030319E52C5C2CC31726
:1008D000922CC3133E08C200C21F702CC717DE2C17
:1008E000C713DE2C3E08C700C7173F08C6004008E4
:1008F000C500C21F7F2CC7134315EA2C4311C40146
:1009000041103C3084008313FF2CC21BA82C3A08F2
:10091000C200411C922CC70CC60CC50CC40CF70AB3
:100920000319E52CC41FA32CC50A031DA32CC60A5A
:10093000031DA32CC70A031DA32CC70CC60CC50C92
:10094000F70A0319E52C431B272CC31B692CC72C62
:100950008030C706C71FB02CEA2C3E08C200BD2C51
:100960003A08C200C708031DBD2CC608031DBD2CD4
:10097000C508031DBD2CF701DE2CC71BC72C0310B7
:10098000C40DC50DC60DC70DF70BBD2CE52CC21F40
:10099000CB2CC717DE2CC713DE2C3D08F7003E0812
:1009A000C7003F08C6004008C500DE2C3908F70024
:1009B0003A08C7003B08C6003C08C5004708F800D5
:1009C0004608F9004508FA001D2DF701F801F90164
:1009D000FA011D2DC401C509C609C709C409C40A05
:1009E000031DF82CC50A031DF82CC60A0319C70AF3
:1009F0004318062CC318482C43197E2CAD2C000834
:100A0000C507031C092DC60A031D092DC70A0319B2
:100A1000411484030008C607031C112DC70A0319DB
:100A2000411484030008801F803AC707031841144B
:100A3000431A0D2CC31A4F2C852C7A08BC00790858
:100A4000BB007808BA007708B9008E30F700390883
:100A5000F7023A08F9003B08F800F917F7080319FC
:100A60003C2D0310F908031D382DF80803193C2DFF
:100A7000F90CF80CF70B312DBA1F432DF809F909C1
:100A8000F80A0319F90A7808B8000130BE00BF005F
:100A9000FF212A3003178D0000308F00031006302D
:100AA0000313B9000B08BA008B13831603178C17B6
:100AB0000C140000000083120313BA1B8B170318D9
:100AC000892D03170C087F390313BA0003170D088B
:100AD0000313BB0003170F080313BC003A08BD0043
:100AE00011223B0803178D0003133C0803178F00E6
:100AF00003130B08BD008B13831603178C170C14FC
:100B00000000000083120313BD1B8B17B90B892D46
:100B1000A82D03170C0D0E0D7F390313BA00031710
:100B20000D080313BB0003170F080313BC003A089A
:100B3000BD0011223B0803178D0003133C08031767
:100B40008F008D0A03198F0A03100313B90B522D5E
:100B50003808B9001330BA003908BB006430BC0053
:100B600035227708B90078083030031DBE2DBA1C35
:100B7000C52DBA19C52D3A1A2030C12DBA113A1215
:100B80003A14F8077808BD0011223908BB000A3072
:100B9000BC0035227708B90078083030031DD62D07
:100BA000BA19DA2D3A1CDA2D3A1A2030F8077808EB
:100BB000BD0011223030B9073908BD00112225309F
:100BC000BD0011222030BD001122BA013808B90041
:100BD0006D217A08BC007908BB007808BA00770854
:100BE000B900C001BF017030BE008330BD003A08BB
:100BF000C1003E08C106C11F022E03110310BA1B1B
:100C00000314352E3A08C1003D08C2003908C2025B
:100C10000319102EC11F352E0308013A8300352E0B
:100C20003E08C2003A08C20203191C2EC11F352E0D
:100C30000308013A8300352E3F08C2003B08C20278
:100C40000319282EC11F352E0308013A8300352EC3
:100C50004008C2003C08C2020319342EC11F352EC1
:100C60000308013A8300352E0310031C432E313054
:100C700003178D0000308F0003134A22831686105D
:100C8000831286144E2E3B3003178D0000308F00E8
:100C900003134A2283168610831286100230B9008D
:100CA000FA30BE004420B90B502E8A110A12922E3F
:100CB00003081F398300813083169900A6309800FD
:100CC00090308312980083161F149F141F159F11D4
:100CD00007309C00831307308312A0000530A10069
:100CE0000730A200A301A401A501A601A701AD2818
:100CF00083161F1383121F179F1783169F138312C8
:100D00001F1483161F109F101F119F118312B9010A
:100D10004629BA012030B9005629003083168600D2
:080D20008312A22A912E630048
:02400E007A3FF7
:00000001FF
;PIC16F877A
;CRC=5EA2  CREATED="03-jun.-24 02:53"
